:020000040800F2
:1000000040240020852D00083F710008712D000854
:10001000712D0008712D0008712D000800000000EE
:10002000000000000000000000000000452E000855
:10003000712D000800000000E52D0008493E000871
:10004000CD2F0008CD2F0008CD2F0008CD2F0008A0
:10005000CD2F0008CD2F0008CD2F0008CD2F000890
:10006000CD2F0008CD2F0008CD2F0008CD2F000880
:10007000CD2F0008CD2F0008CD2F0008CD2F000870
:10008000CD2F0008CD2F0008CD2F0008CD2F000860
:10009000CD2F0008CD2F0008CD2F0008CD2F000850
:1000A000CD2F0008CD2F0008CD2F0008CD2F000840
:1000B000CD2F0008CD2F0008CD2F0008CD2F000830
:1000C000CD2F0008CD2F0008CD2F0008CD2F000820
:1000D000CD2F0008CD2F0008CD2F0008CD2F000810
:1000E000CD2F0008CD2F0008CD2F0008CD2F000800
:1000F000CD2F0008CD2F0008CD2F0008CD2F0008F0
:10010000CD2F0008CD2F0008CD2F0008CD2F0008DF
:10011000CD2F0008CD2F0008CD2F0008CD2F0008CF
:10012000CD2F0008CD2F0008CD2F0008CD2F0008BF
:10013000CD2F0008CD2F0008CD2F0008CD2F0008AF
:10014000CD2F0008CD2F0008CD2F0008CD2F00089F
:10015000CD2F0008CD2F0008CD2F0008CD2F00088F
:10016000CD2F0008CD2F0008CD2F0008CD2F00087F
:10017000CD2F0008CD2F0008CD2F0008CD2F00086F
:10018000CD2F0008CD2F0008CD2F0008CD2F00085F
:10019000CD2F0008CD2F0008CD2F0008CD2F00084F
:1001A000CD2F0008CD2F0008CD2F0008CD2F00083F
:1001B000CD2F0008CD2F0008CD2F0008CD2F00082F
:0401C000CD2F000837
:1001C80081F0004102E000BF83F0004330B54FEA00
:1001D80041044FEA430594EA050F08BF90EA020F6D
:1001E8001FBF54EA000C55EA020C7FEA645C7FEA00
:1001F800655C00F0E2804FEA5454D4EB5555B8BF23
:100208006D420CDD2C4480EA020281EA030382EA93
:10021800000083EA010180EA020281EA0303362D25
:1002280088BF30BD11F0004F4FEA01314FF4801CF8
:100238004CEA113102D0404261EB410113F0004F0A
:100248004FEA03334CEA133302D0524263EB4303C1
:1002580094EA050F00F0A780A4F10104D5F1200E5F
:100268000DDB02FA0EFC22FA05F2801841F10001BA
:1002780003FA0EF2801843FA05F359410EE0A5F18E
:1002880020050EF1200E012A03FA0EFC28BF4CF0BF
:10029800020C43FA05F3C01851EBE37101F0004575
:1002A80007D54FF0000EDCF1000C7EEB00006EEB82
:1002B8000101B1F5801F1BD3B1F5001F0CD349080C
:1002C8005FEA30004FEA3C0C04F101044FEA445263
:1002D80012F5800F80F09A80BCF1004F08BF5FEAEA
:1002E800500C50F1000041EB045141EA050130BDCA
:1002F8005FEA4C0C404141EB0101013C28BFB1F5DC
:10030800801FE9D291F0000F04BF01460020B1FA26
:1003180081F308BF2033A3F10B03B3F120020CDAF9
:100328000C3208DD02F1140CC2F10C0201FA0CF0D7
:1003380021FA02F10CE002F11402D8BFC2F1200C3C
:1003480001FA02F120FA0CFCDCBF41EA0C019040F2
:10035800E41AA2BF01EB0451294330BD6FEA04043B
:100368001F3C1CDA0C340EDC04F11404C4F1200226
:1003780020FA04F001FA02F340EA030021FA04F338
:1003880045EA030130BDC4F10C04C4F1200220FA8F
:1003980002F001FA04F340EA0300294630BD21FACD
:1003A80004F0294630BD94F0000F83F4801306BF93
:1003B80081F480110134013D4EE77FEA645C18BF87
:1003C8007FEA655C29D094EA050F08BF90EA020F1E
:1003D80005D054EA000C04BF1946104630BD91EA16
:1003E800030F1EBF0021002030BD5FEA545C05D119
:1003F8004000494128BF41F0004130BD14F5800458
:100408003CBF01F5801130BD01F0004545F0FE41CB
:1004180041F470014FF0000030BD7FEA645C1ABF00
:10042800194610467FEA655C1CBF0B46024650EA37
:10043800013406BF52EA033591EA030F41F4002163
:1004480030BD00BF90F0000F04BF0021704730B5E9
:100458004FF4806404F132044FF000054FF00001BE
:1004680050E700BF90F0000F04BF0021704730B57F
:100478004FF4806404F1320410F0004548BF404254
:100488004FF000013EE700BF42004FEAE2014FEAA9
:1004980031014FEA02701FBF12F07F4393F07F4F84
:1004A80081F06051704732F07F4208BF704793F087
:1004B8007F4F04BF41F40021704730B54FF460749A
:1004C80001F0004521F000411CE700BF50EA01029D
:1004D80008BF704730B54FF000050AE050EA010246
:1004E80008BF704730B511F0004502D5404261EBB6
:1004F80041014FF4806404F132045FEA915C3FF4F7
:10050800D8AE4FF003025FEADC0C18BF03325FEA93
:10051800DC0C18BF033202EBDC02C2F1200300FA44
:1005280003FC20FA02F001FA03FE40EA0E0021FA69
:1005380002F11444BDE600BF80F0004002E000BFB5
:1005480081F0004142001FBF5FEA410392EA030FB6
:100558007FEA226C7FEA236C6AD04FEA1262D2EB00
:100568001363C1BFD218414048404140B8BF5B4205
:10057800192B88BF704710F0004F40F4000020F09E
:100588007F4018BF404211F0004F41F4000121F0B4
:100598007F4118BF494292EA030F3FD0A2F10102FE
:1005A80041FA03FC10EB0C00C3F1200301FA03F13C
:1005B80000F0004302D5494260EB4000B0F5000F5F
:1005C80013D3B0F1807F06D340084FEA310102F11E
:1005D8000102FE2A51D2B1F1004F40EBC25008BFD0
:1005E80020F0010040EA03007047490040EB00009A
:1005F800013A28BFB0F5000FEDD2B0FA80FCACF19B
:10060800080CB2EB0C0200FA0CF0AABF00EBC250C7
:1006180052421843BCBFD0401843704792F0000FB5
:1006280081F4000106BF80F400000132013BB5E708
:100638004FEA41037FEA226C18BF7FEA236C21D07E
:1006480092EA030F04D092F0000F08BF08467047E3
:1006580090EA010F1CBF0020704712F07F4F04D1B1
:10066800400028BF40F00040704712F100723CBFC4
:1006780000F50000704700F0004343F0FE4040F4EE
:10068800000070477FEA226216BF08467FEA2363AC
:100698000146420206BF5FEA412390EA010F40F497
:1006A800800070474FF0000304E000BF10F00043E3
:1006B80048BF40425FEA000C08BF704743F09643CA
:1006C80001464FF000001CE050EA010208BF7047E5
:1006D8004FF000030AE000BF50EA010208BF70476C
:1006E80011F0004302D5404261EB41015FEA010C81
:1006F80002BF84460146002043F0B64308BFA3F179
:100708008053A3F50003BCFA8CF2083AA3EBC2535A
:1007180010DB01FA02FC634400FA02FCC2F1200279
:10072800BCF1004F20FA02F243EB020008BF20F0B0
:100738000100704702F1200201FA02FCC2F1200216
:1007480050EA4C0021FA02F243EB020008BF20EA0B
:10075800DC7070474FF0FF0C1CEAD0521EBF1CEA39
:10076800D15392EA0C0F93EA0C0F6FD01A4480EA27
:10077800010C400218BF5FEA41211ED04FF0006310
:1007880043EA501043EA5111A0FB01310CF000403C
:10079800B1F5000F3EBF490041EAD3715B0040EA62
:1007A800010062F17F02FD2A1DD8B3F1004F40EB32
:1007B800C25008BF20F00100704790F0000F0CF005
:1007C800004C08BF49024CEA502040EA51207F3AC9
:1007D800C2BFD2F1FF0340EAC250704740F40000A4
:1007E8004FF00003013A5DDC12F1190FDCBF00F095
:1007F80000407047C2F10002410021FA02F1C2F143
:10080800200200FA02FC5FEA310040F1000053EADE
:100818004C0308BF20EADC70704792F0000F00F02C
:10082800004C02BF400010F4000F013AF9D040EA32
:100838000C0093F0000F01F0004C02BF490011F4C6
:10084800000F013BF9D041EA0C018FE70CEAD153C4
:1008580092EA0C0F18BF93EA0C0F0AD030F0004C44
:1008680018BF31F0004CD8D180EA010000F00040F8
:10087800704790F0000F17BF90F0004F084691F0B6
:10088800000F91F0004F14D092EA0C0F01D14202F0
:100898000FD193EA0C0F03D14B0218BF084608D1B9
:1008A80080EA010000F0004040F0FE4040F4000003
:1008B800704740F0FE4040F4400070474FF0FF0C96
:1008C8001CEAD0521EBF1CEAD15392EA0C0F93EADD
:1008D8000C0F69D0A2EB030280EA010C49024FEA2F
:1008E800402037D04FF0805343EA111143EA1013E8
:1008F8000CF000408B4238BF5B0042F17D024FF4A0
:10090800000C8B4224BF5B1A40EA0C00B3EB510F7A
:1009180024BFA3EB510340EA5C00B3EB910F24BF63
:10092800A3EB910340EA9C00B3EBD10F24BFA3EBE8
:10093800D10340EADC001B0118BF5FEA1C1CE0D1B0
:10094800FD2A3FF650AF8B4240EBC25008BF20F063
:10095800010070470CF0004C4CEA50207F32C2BFB7
:10096800D2F1FF0340EAC250704740F400004FF054
:100978000003013A37E792F0000F00F0004C02BF85
:10098800400010F4000F013AF9D040EA0C0093F04F
:10099800000F01F0004C02BF490011F4000F013BA9
:1009A800F9D041EA0C0195E70CEAD15392EA0C0F11
:1009B80008D142027FF47DAF93EA0C0F7FF470AF49
:1009C800084676E793EA0C0F04D14B023FF44CAF8C
:1009D80008466EE730F0004C18BF31F0004CCAD121
:1009E80030F000427FF45CAF31F000437FF43CAF5D
:1009F8005FE700BF4FF0FF3C06E000BF4FF0010C7F
:100A080002E000BF4FF0010C4DF804CD4FEA400260
:100A18004FEA41037FEA226C18BF7FEA236C11D0AA
:100A280001B052EA530C18BF90EA010F58BFB2EB5D
:100A3800030088BFC81738BF6FEAE17018BF40F0DD
:100A4800010070477FEA226C02D15FEA402C05D191
:100A58007FEA236CE4D15FEA412CE1D05DF8040B16
:100A6800704700BF844608466146FFE70FB5FFF7A9
:100A7800C9FF002848BF10F1000F0FBD4DF808ED61
:100A8800FFF7F4FF0CBF012000205DF808FB00BF52
:100A98004DF808EDFFF7EAFF34BF012000205DF8AC
:100AA80008FB00BF4DF808EDFFF7E0FF94BF0120F9
:100AB80000205DF808FB00BF4DF808EDFFF7D2FFF6
:100AC80094BF012000205DF808FB00BF4DF808ED39
:100AD800FFF7C8FF34BF012000205DF808FB00BF06
:100AE80053B94AB9002908BF00281CBF4FF0FF318D
:100AF8004FF0FF3000F00CB8ADF1080C6DE904CEF2
:100B080000F010F8DDF804E0DDE9022304B07047D6
:100B1800704700BF034613F8012B002AFBD1181AAF
:100B2800013870472DE9F04786468C460846089EEE
:100B3800154674461946002B40F0C2808542B2FA29
:100B480082F245D94AB1C2F1200300FA02FC2EFA1A
:100B580003F3954043EA0C0C94404FEA154EA8B2B3
:100B6800BCFBFEF8230C0EFB18CC08FB00F943EA8B
:100B78000C43994528D9EB1808F1FF3704D2994559
:100B880002D9A8F102072B44A3EB0903A4B2B3FBD3
:100B9800FEFC0EFB1C330CFB00F044EA0344A042AD
:100BA80014D92C190CF1FF3304D2A04202D9ACF1AC
:100BB80002032C44241A43EA07401EB1D440002300
:100BC80034607360BDE8F0874746DDE76346F1E7C8
:100BD80092BB431B01214FEA154EAFB2B3FBFEFC9B
:100BE800200C0EFB1C330CFB07F840EA0343984526
:100BF80062D9EB180CF1FF3004D2984502D9ACF158
:100C080002002B44A3EB0803A4B2B3FBFEFC0EFBCB
:100C18001C330CFB07F744EA0344A7424ED92C19AE
:100C28000CF1FF3304D2A74202D9ACF102032C44E1
:100C3800E41B43EA0040C0E7C2F1200320FA03F1B5
:100C4800954090402EFA03F303434FEA154EAFB296
:100C5800B1FBFEFC0EFB1C10190C0CFB07F841EA5B
:100C68000041884504FA02F422D969180CF1FF30D2
:100C780004D2884502D9ACF102002944A1EB08014D
:100C88009BB2B1FBFEFC0EFB1C110CFB07F743EA01
:100C980001439F420ED9EB180CF1FF3104D29F4259
:100CA80002D9ACF102012B44DB1B41EA004192E777
:100CB8006046E3E76146F7E76046A3E76346B7E7C0
:100CC800834206D916B9002108467BE7C6E900E049
:100CD800F9E7B3FA83F78FB9834201D3724508D88D
:100CE800BEEB020460EB030301209C461EB9002101
:100CF80068E73846FAE7C6E9004CF8E7C7F1200C80
:100D0800BB4022FA0CF41C432EFA0CF120FA0CF327
:100D1800B84001434FEA14490EFA07F5B3FBF9F856
:100D28001FFA84FE09FB18300B0C08FB0EFA43EA85
:100D380000439A4502FA07F240D9E31808F1FF3058
:100D480004D29A4502D9A8F102002344A3EB0A036E
:100D580089B2B3FBF9F809FB183308FB0EFE41EA28
:100D680003418E452CD9611808F1FF3304D28E4512
:100D780002D9A8F10203214443EA0040A0FB0298EB
:100D8800A1EB0E014145CE46434602D306D14D455F
:100D980004D2B9EB020E68EB04030138002EA6D08A
:100DA800B5EB0E0261EB030101FA0CFC22FA07F322
:100DB8004CEA0303F940C6E9003198E74046C5E725
:100DC8004346D9E7000000002DE9F8432C4E2D4B8F
:100DD80046F8043C002400AFC6E900442A4D2B4ADB
:100DE8002846032106F0D2F856F8040CFFF74CFB0E
:100DF80088B06A46264B53614FF00408C2E90601E1
:100E08004FF4035642F8108F23463146284601F026
:100E180023FA84B06A4616A1D1E90001C2E90601A5
:100E28001C491D4B53610020C2E908011B490020E1
:100E38000823C2E90A0142F8103F44F2C0012346E0
:100E4800284601F009FA04B06A460BA1D1E900016D
:100E5800134B5361C2E9060142F8108F2846234616
:100E6800314601F0F9F92046BD46BDE8F88300BFD8
:100E7800000000A01E14843F000000800A001440F7
:100E8800040000200000C843D0860008898E0008AE
:100E9800B48E00080000E03FCB8E0008000024401C
:100EA800F48E0008F8B506F0EDFE0A220023FFF7DD
:100EB80017FE0D4A04460D460C48032105F067FC51
:100EC80006F0E0FE0A220023FFF70AFE0746001B91
:100ED8000E4661EB0501FFF7FFFB00F0F1F83C4619
:100EE80005F057FC3546EBE70A8D0008C886000870
:100EF800F8B506F0C7FE0A220023FFF7F1FD0F4AF6
:100F080004460D460E48032105F041FC06F0BAFEE2
:100F18000A220023FFF7E4FD031B61EB0502642BA3
:100F280072F1000207460E4605DB00F029F900F0D1
:100F38007FFA3C46354605F02CFCE7E7248D00088F
:100F4800C8860008D0B53A4A3A488AB0032105F065
:100F58001EFC394A3748032105F019FC344A354844
:100F6800032105F014FC354A3248032105F00FFC33
:100F7800334A3048032105F00AFC324A2D48032140
:100F880005F005FC304A2B48032105F000FC284AEF
:100F98002848032105F0FBFBFFF716FF002808DAB5
:100FA8002A4A2448012105F0F2FB4FF0FF300AB02D
:100FB800D0BD00F0F7F9002801DA254AF1E7254A03
:100FC8001C48032105F0E3FB002600270024052325
:100FD800CDE90334CDE90667CDE901441E4B1F492D
:100FE80000944FF480621E4803F034FC0623CDE9D8
:100FF80002431C491C4B1D4804944FF48062CDE900
:101008000667CDE9004403F025FC194A0948032185
:1010180005F0BDFB0DF1260000F038FA18B1BDF956
:10102800260000F027F800F04FFA05F0B2FBF1E7D0
:101038003F8D0008C8860008688D0008898D000863
:101048009E8D0008B68D0008C88D0008ED8D00083B
:10105800128E0008348E0008AD0E0008000F002024
:1010680080010020C00A0020F90E000800010020BD
:10107800618E000880B56FF0FE039842B8BF18462D
:10108800FF280B4B00AFA8BFFF2088B018816A4625
:10109800084B5361084BC2E90630042342F8103F5D
:1010A800064800234FF4045101F0D6F8BD4680BD30
:1010B80000000020148F0008278F0008D086000841
:1010C800F8B52949294DFFF7F9FB0646B5F9080097
:1010D8006F68FFF7EBFA2649FFF73CFB4FF07C51AE
:1010E80004463846FFF736FB01462046FFF728FA44
:1010F8001D49FFF7E3FB3146FFF72CFB3946FFF7A5
:1011080021FA1C490446FFF7E1FCD8B91A492046E0
:10111800FFF7BEFCC0B9214630466C60FFF71AFBEA
:101128002968164FFFF70EFA39460646FFF7CEFC38
:1011380060B12F6000212046FFF7C8FC08B10023EA
:101148006B60F8BD0B4CE6E70B4CE4E7002739462B
:101158003046FFF79DFC08B92E60F2E72F6039464C
:101168002046FFF795FCE9E7000020410000002039
:10117800F5A0203C0000A0400000A0C000007A4478
:10118800014B1868704700BF000000202DE9F04FA0
:1011980087B0804602AF06F075FD0A220023FFF7EC
:1011A8009FFCC7E900106C4DD8F808309B6933B133
:1011B800012207F10B0140469847012803D0143754
:1011C800BD46BDE8F08FFB7AA3F120025E2A94BFEA
:1011D8001A463F22614800920321614A05F0E9FE60
:1011E800604BFC7A7A681A600A2C3A685A6073D1A4
:1011F8002A68002A30DD5C4E0023E94688B0B354E3
:1012080002AA5A49DFF868A14FF4007BC2E9051623
:10121800A2F81CB042F810AF50484FF4E65101F064
:101228001BF807F10C01CD462246304604F03CF984
:10123800F968B1424FF0000311D188B002AA4D48B5
:10124800A2F81CB0C2E9050142F810AF43484FF4B8
:10125800E65101F001F8CD4600232B60A4E70B7896
:10126800E3B1093BDBB2172B04D8434A22FA03F354
:10127800DC0713D46C468AB002AA404BD161C2E99C
:1012880005363F4B13623F4B42F8103F334800236B
:101298004FF4235100F0E0FFA546DDE704B26FF0FC
:1012A800FE039C42B8BF1C46FF2CA8BFFF244FF08A
:1012B800FF324FF0FF33344803F05EF9334801231F
:1012C80004808370043003F0CFF9314A2348234661
:1012D800032105F064FEBFE70D2C3FF465AF2B68D2
:1012E8003E2B33DCA4F12B02D2B20E2A14D9202CC7
:1012F8003FF45AAF092C3FF457AFA4F12002D2B201
:10130800FBB95E2A94BF23463F23224A1348009420
:10131800032105F04EFE47E71F4941FA02F2D207C2
:1013280008D563B123461D4A0C480094032105F0F3
:1013380040FE91E75A1C2A600B4AD45434E72346EE
:10134800E3E75E2A94BF23463F23ECE7144A0348A9
:10135800032105F01BFE7FE790080020F8860008AF
:10136800498F000800020020480A0020608F00080A
:1013780003000001708F0008110080009A8F000898
:1013880000020103040000027C0800207808002005
:10139800CC8F0008DD8F00081A80FFFF0B90000833
:1013A80038900008B0B500AF1A4C204606F00FFB85
:1013B80040B91948194A012105F0E8FD6FF01200FB
:1013C800BD46B0BD6D4688B06A46154BC2E90534C6
:1013D800032342F8103F104800234FF4C65100F091
:1013E8003BFFAD460F4806F033FBA3682BB19B6C5F
:1013F8001BB10D49002220469847A3689B6A0BB190
:10140800044898470448094A032105F0BFFD002015
:10141800D6E700BFA4820008F886000853900008A9
:10142800699000087C080020A36700087F900008E6
:10143800F0B58BB0FFF728F8104ACDE9000120215C
:1014480002A804F007F81F28054606DC0C4F02AC7A
:101458000026AE420AD1002006E00A480A4A0121C5
:1014680005F094FD6FF015000BB0F0BD14F8011BEA
:10147800BB6803485B6898470136EAE7C3900008F1
:10148800A4820008F8860008CD90000870B50446CC
:10149800A8B10C4D4FF0FF324FF0FF33284603F050
:1014A8006BF815F8026C2EB135F9042C2280002255
:1014B80005F8022C034803F0D7F8304670BD0646FD
:1014C800FBE700BF7C080020F7B5144D2B68002B04
:1014D80021DD134C06F0D6FBD4E90067012E77F125
:1014E800000318DB0A220023FFF7FAFA801B61EBDE
:1014F8000701C92871F100010DDB2B68094A009327
:101508000948C823032105F054FD00232B6000225D
:101518000023C4E9002303B0F0BD00BF90080020F9
:1015280000020020EE900008F88600082DE9F04F30
:1015380091B08407009302F004030293C2F3C2033C
:1015480003F10103DDF86880039205460E46059312
:1015580040F0BA81041D30B1072909D86FF01B008B
:1015680011B0BDE8F08F01F007063444C6F1080653
:10157800009B4FF00009591E4FF0040A4FF0FF334B
:101588000193CDF810904F46CB4653460DB1009AC3
:1015980022600598002800F3E8809848009A824263
:1015A80003D397488242C0F0E080039AA4EB050E6B
:1015B80092074FEA9E0000F103810F2F00F2B180DD
:1015C800002D00F0058107F140020DEB020C019A95
:1015D8000CF8200C0CF8102C049801300490E7E06B
:1015E8007A285DD84B280ED8472859D829282DD8CD
:1015F800252852D054D820287AD02338D0F1000B8F
:101608004BEB000B74E04C382E2849D8DFE800F08B
:101618007048484848484848484848484B48484817
:10162800484848484859484B4B595959704B6D4898
:101638007048184B184848827F4B48484B487F00F1
:1016480000204FF0000B4FF0040A38E02A38C0B2EF
:10165800012202FA00F010EA0E0F49D110F0625C84
:101668002FD110EA020B43D06046013C5444B4FB2E
:10167800FAF40AFB04F4002D61D0A3EB050CA44492
:10168800B4453FF66BAF002868D1042B47D158F812
:10169800043B2360043404232AE0019A013A0192AE
:1016A8004FF0000B24E011F8010C6C2834D111F82C
:1016B800023C00206C2B8346C5D14FF0080A5346E4
:1016C800D3E708F1070828F007080734F8E802AB61
:1016D80024F0070435B106982044B0423FF63EAFE7
:1016E800C4E900AB08344FF0000B4FF0080A53462A
:1016F80011F8010F002878D0BBF1000F7FF470AF0C
:101708002528F5D1019B013301934FF0010B4FF0D0
:10171800040AECE7584694E700208346A5E7082B1F
:1017280002D06FF015001BE708F1070828F007083A
:10173800F8E80223C4E9002308340823D8E768B985
:10174800042B02D108F10408A4E7082BE9D108F119
:10175800070828F0070808F10808EDE7059A013A94
:10176800059258F8042B009210E7039A900720D5A9
:10177800A4EB050E4FEA9E004FF0010CBEF5007F6A
:10178800CFD20F2FCDD8F5B107F140020DEB020EE5
:10179800C0B2019A0EF8200C0EF8102CBCF1000F04
:1017A8003FF41AAF60F07F000EF8200C09F1010930
:1017B8000137C5F10802043406924FF6DA7E97E73E
:1017C8004FF0000CDAE7BCF1000F01D00136EFE76B
:1017D800029802360028EBD10098CDE90631FFF7D0
:1017E80099F9DDE906310644E2E7631BB3F5806F3A
:1017F80097D23DB9A6F10804E018B1E6AC8000081C
:10180800189A0008029A28609B082B709DF81030DF
:10181800C2B1EB7085F80290B9F1000F05D008A8A5
:101828000022C5F1010C97420ED1C5F101030DF15B
:1018380020084FF0000A01930DF1300B574512D1E3
:10184800601B8DE66B70E5E710F8013B190608D5BB
:101858000CEB040EB64503F07F033FF67FAE04F8A9
:10186800013B0132DFE7B9F1000F03D098F90020FE
:10187800002A17DB029BD3B11AF80B2004F8012BBE
:101888000022019B18191044B0423FF667AE98F841
:10189800000004F8010B00990392204606F01CFA98
:1018A800039A14440AF1010A08F10108C6E798F8F6
:1018B800002055F822300093029B45F8223000980A
:1018C800FFF728F9421CDCE76FF00D0048E600BF7F
:1018D8002DE9F04F97B000AF90F802A0D7F880B08C
:1018E8003B62CBF3C0030446FA62BB61894641B947
:1018F800457800780AEB800020444D4517D8A0EBC6
:101908000409E378FB61BAF1000F02D01BF0010F64
:1019180016D1FB6953BBFB6A1BB13A6A494620469C
:1019280098474D4628465C37BD46BDE8F08F461CB3
:101938003046FFF7EFF80130304409F10109DCE7E0
:10194800237862687A62FA6A9900796104EB830104
:10195800002A40F000814D460E4601EB0A094FF07F
:1019680000084E454CD101EB0A0610E01BF0020FAF
:10197800D1D023789A007A6162687A62FA6A04EBB5
:101988008301002A77D14D4601EB0A0690461BF0E9
:10199800050F0CBF02230123FB62FB6906EB430A18
:1019A8000BF00203BB625645BCD016F8021B16F8B2
:1019B800013C54F82390994B994502D3984B99458B
:1019C80036D3BB69002B40D0786A04F096FF002814
:1019D8003BD0E9468AB06A46924B53617B6AC2E9BA
:1019E80006314FF4007313848F4B42F8103F8F4831
:1019F80000234FF4125100F02FFC023DCD46D2E7F0
:101A080016F8013BF96254F82300FFF783F8D7F87A
:101A18008430F96A01304BB1D7F8883098453EBF19
:101A2800D7F8843023F8180008F10108054498E72E
:101A3800BB6923B1786A04F060FF0028C9D11BF0A4
:101A4800010F05D1FB6AED1AADE7BB6A002BAAD0DE
:101A58004846FFF75FF8D7F8843053B1D7F8883095
:101A680098453FBFD7F88420431C22F8183008F166
:101A78000108054497E7BAF1000F72D01BF004067D
:101A880072D0D046002607F1480052463B61B96241
:101A980006F022F9B96A3B6901EB0A02BA62FA69EF
:101AA800F9695200FA60BA6A02EB41023A610BF036
:101AB8000202BA603A69B96A8A4257D162787A6290
:101AC8001BF0020F32440CBF4FEA580100211BF0F3
:101AD800010FD2B240F09F801BF0040F14BF4046A4
:101AE8000020BB616270A070E1703A6A7969FB6A94
:101AF80020469847051EFFF615AFBB6923707B6A21
:101B08006370FB69E37041463A6AFB6A84F802A095
:101B180007F148009847B0F10008C0F2BB807B6924
:101B28003A6AA9EB0A01C91AFB68C91AD7E90A0374
:101B380098470028C0F2B080A84408EB00054FF091
:101B4800000B07F1380AB34572D300213A6AFB6AE1
:101B580008469847E6E656464FF0000807F1380071
:101B680093E75646D04697E7B04695E7BA6A12F823
:101B7800021BBA6212F8015C284A54F82500904208
:101B880002D3274A90421ED3BA6932B1786A7B6081
:101B980004F0B3FE7B6800288CD1BA6802BB08F158
:101BA800280207F1300C08F10100944407F15802AB
:101BB80052FA80F008F102080CF8101C5FFA88F855
:101BC80000F8105C76E7BA693AB1786A7B6004F08D
:101BD80094FE7B6800287FF46DAF1BF0010F09D0DD
:101BE80006F1280207F13000711C161806F8205C6F
:101BF800CEB25FE71BF0040F3FF45CAF08F1280298
:101C080007F1300008F1010102EB000808F8105C48
:101C18005FFA81F84EE7002063E700BFAC80000858
:101C2800189A00083391000804000001A8860008EB
:101C38001BF80A3087F8373054F82390D7F88430E7
:101C48002BB3D7F888309B4521D2D7F8843033F8A6
:101C58001B803A6AFB6A012107F137009847002880
:101C68001ADB0544B8F1000F06D14846FEF752FFCB
:101C780000F101081FFA88F83A6AFB6A41464846AB
:101C88009847002808DB05440BF1010B5BE74FF090
:101C98000008DEE7454645E6054643E6014B186081
:101CA800704700BF0C00002080B505460E46174659
:101CB800984603F08FF8034606F0EAF9DFF8189023
:101CC800044649F80030424630463946A84754F899
:101CD800090001F06DF800BF08000000034A5368CE
:101CE80023F0020353600020704700BF002004E087
:101CF800084B1A6842F480721A601A6842F400723B
:101D08001A601A6842F480621A60034B034A1A6028
:101D1800704700BF003C0240740000200024F4001B
:101D28002DE9F047DFF85880044607464FF00109CF
:101D380014B93846BDE8F08794FAA4F5B5FA85F5E4
:101D480009FA05F32E0108EB05156FEA030A24EAE0
:101D580003042B7B002BEBD058F806301B694BB9DA
:101D68004644042273682846196807EA0A0705F0FA
:101D78009DF8DDE7284698470028D9D1F0E700BF4D
:101D88000887000830B51049104889B0002205F0CE
:101D98007BFF0F4D0F4900220023CDE906230024C5
:101DA8000E23CDE90334CDE901440B4B00944FF4E5
:101DB8004072284602F04EFD0849284605F061FEAB
:101DC800204609B030BD00BFE91D0008900600207C
:101DD800080200204013002005210008FB9100089C
:101DE800014802F091BC00BFEC0000202DE9F0474B
:101DF800804620480F4605F031F80646002832D0C4
:101E080000252846BDE8F087237B83B12368DB687B
:101E18000BB120469847636883F8069023681B69CE
:101E2800CBB9636804221968204605F03FF80136EB
:101E380010345445E8D3B8F1000FE2D0002DDFD0BC
:101E48002846FFF76DFF0546002FF7D000216420D4
:101E580005F0ADFEF2E7204698470028E1D009FAE0
:101E680006F31D43E3E7044CDFF810A005464FF0E6
:101E78000109DEE7A4080020088700081887000881
:101E8800014B53F820007047BC89000808B5034689
:101E980008462BB1044A136000F074FC002008BD0A
:101EA8006FF01500FBE700BF1000002010B5044CD0
:101EB800237813B9034802F027FC0123237010BDCF
:101EC800880A0020EC00002010B504460B4804F0F6
:101ED800C5FF5CB1BFF35B8F094B53E8001F0139A5
:101EE80043E80012002AF8D1BFF35B8F054805F0DC
:101EF800D7FE0548BDE8104002F006BC9C0800204B
:101F0800A008002090060020EC0000200020064BCE
:101F1800BFF35B8F014653E8000F43E80012002A25
:101F2800F9D1BFF35B8F70479C08002070B5FFF7AD
:101F3800EDFF084C084E0546B44200D370BD6368F7
:101F48005B792BB123685B6813B129462046984713
:101F58001034F1E7088700081887000810B5044C0A
:101F68000449204604F000FE034B1C6010BD00BF6E
:101F7800B0000020A8890008940800200D4A0E48E7
:101F8800002310B513700D4A13600D4A4FF47A718F
:101F98001360FFF77BFFFFF7E1FF0A4B0A4918467A
:101FA8008B4200D310BD1A1A5C68121101322271DB
:101FB8001033F5E7890A00207F6E00089C0800208E
:101FC800A00800200887000818870008014600229A
:101FD8000148002304F0E9BDB0000020014804F0E6
:101FE80082BE00BFB0000020024B0146186804F012
:101FF800CEBE00BF94080020014804F003BF00BF14
:10200800B000002070B5264B1878002846D0FFF79E
:10201800E5FF054600283ED1224B234C1B68002BC8
:1020280012DD05F02FFE0A220023FEF759FDD4E940
:102038000032C01A40F2E93361EB0201984271F1B3
:10204800000101D3FFF772FFD4E9003213F57A7368
:1020580042F10002C4E90032BDE87040FFF7CCBF8E
:1020680063685B7923B1236829461B682046984733
:102078001034B442F4D32846FFF7B6FFBFF35B8FA2
:102088000A4B53E8001F013943E80012002AF8D12F
:10209800BFF35B8FC0E7064C064EEAE770BD00BF92
:1020A800880A00209C08002088060020A00800203C
:1020B800088700081887000870B50D4D297861B9A0
:1020C8000120FFF793FE0B4C0B4EB44206D3FFF7EB
:1020D80099FF0028FBD101232B7070BD63685B79E1
:1020E8001BB1236820469B6898471034EDE700BF72
:1020F800890A0020088700081887000800212DE9B0
:10210800F0470846FFF772FE044658B34FF4FA78D2
:102118004FF0000905F0BCFF1B4B1C4A1B5813600D
:1021280033B11B4B1B68092B02DD1A4802F0ECFA8D
:10213800194FDFF860A0002544B12046FFF7F0FDF5
:10214800044618B94FF0FF384FF0FF39FFF75AFF30
:10215800064628B9B5B942464B46504602F008FB38
:102168003546E9E74FF0FF384FF0FF39D2E72B68E3
:102178009B691BB100221146284698471035BD427D
:10218800F5D3E8E7054DFAE70800000098080020B5
:10219800A0080020EC000020188700080887000825
:1021A80013B5184804F05AFE174B1B7873B1EFF3B8
:1021B8001184102383F31288BFF36F8FFFF722FF78
:1021C80084F31188BFF36F8F02B010BD0F4B1B68EB
:1021D800002BF9D050B900220023CDE900230C4888
:1021E80042F21072002303F0F7F8EDE70928EBD16B
:1021F800074805F055FD074802B0BDE8104002F059
:1022080083BA00BFA0080020890A0020980800208F
:1022180090060020EC00002010B5064B1B68044611
:1022280098472146A060044804F03EFDBDE81040F0
:10223800FFF7B6BF10000020B0000020044A054B8D
:102248009B1AB1EBD30F34BF52F83100002070470E
:10225800A8860008088700082DE9F04F8FB004AF62
:10226800C1F34A28B8600D4691467B600C0DB8F161
:10227800000F63D0002607F114034FF0040B4FF052
:102288000A0AC7F80C80C7E907667E620193CDF891
:1022980008B0CDF800A007F11C03F968324648469B
:1022A800FFF716FBB0F5006F03461CD36C468AB0E7
:1022B800D9F8041004AB2648C3E9050140F2FF71C0
:1022C800D9611A464FF400711984224B42F8103F25
:1022D800214833464FF41251FFF7BEFFA5462C376D
:1022E800BD46BDE8F08FC0F30A0804F11700184492
:1022F80020F0070080083B60FFF768FE68F353256D
:10230800044690B13B68154AC7E9083600F1100148
:1023180007F11403F961CDE900A3CDF808B0F96815
:1023280007F11C034846FFF7D3FA68F353257B6887
:10233800B9682A46204604F0D9FDD0E704F1170011
:1023480020F007008008FFF741FE0446EDE700BFD4
:102358001092000804000001B0860008C76E00084B
:102368002DE9F04F87B0DDE91279DDE9105A04460E
:10237800039193469846BFB1CDF800903B4652462C
:1023880010210020CDF81490FFF7D0F8B0F5006FB9
:1023980006460AD3184A194840F2FF73022107B0CB
:1023A800BDE8F04F04F0FBBD3E4605F11700304490
:1023B80020F0070004F007048008FFF707FE0BF081
:1023C800070BE40044EA8B1444EA462444EA055423
:1023D800054640B13FB1CDF800903B4652463146E4
:1023E8001030FFF7A3F8039943462246284607B062
:1023F800BDE8F04F04F07ABD4F920008B08600089F
:10240800406820B1034BC01A40F3CF0070474FF02B
:10241800FF307047A88600080EB403B503AB014629
:1024280053F8042B0448019300F052FF02B05DF802
:1024380004EB03B0704700BF09700008CA0605D452
:102448008B064CBF02490349FFF7E6BF704700BF40
:1024580088920008879200082DE9F04F89B09B46C2
:10246800149B06939DF84CA0159B0593169B179EED
:10247800049304460D469046BAF1000F00F09D8083
:1024880006F48073079304F00FFD06F00209024674
:1024980000283ED091492046FFF7BEFF0746B9F114
:1024A800000F08D016F0440F35D18D492A46204632
:1024B800FFF7B2FF074406F0010353B1894B8A497D
:1024C80053F82A20894B2046002A08BF1A46FFF7EE
:1024D800A3FF06F48073002B49D006F00803002BF5
:1024E80063D1B8F1000F66D0814942462046FFF714
:1024F80093FF0546069B3D44002B6DD1049B002BA2
:1025080073D1F30700F1E48031462046FFF796FFC8
:10251800D8E00746C3E7774B18680028CAD0764B3F
:102528004FF47A791B68B5FBF3F54FF46163B5FB9B
:10253800F0F100FB115509FB05F54FF03C0CB1FB20
:10254800F3F203FB1211B5FBF0FEB1FBFCF300FB49
:102558001E550CFB131109FB05F50091B5FBF0F5B1
:102568006649CDE901E52046FFF756FFA2E706F0E8
:102578000803EBB1624B634953F82A202046FFF762
:102588004BFF0546B8F1000F05D059494246204691
:10259800FFF742FF0544BBF1000FABD05A495A463A
:1025A8002046FFF739FF0544A4E74FF0000BE1E7A9
:1025B80006F00805E6E745469CE7BBF1010F069BD8
:1025C80006D1002B64D1049B002B7BD000250CE0A6
:1025D800002BF8D04D485CE04D48069B4D492246FB
:1025E80004F05AF9049B002B68D0DFF82C81DFF83F
:1025F8002C91049F3146102F204628BF1027FFF743
:102608001DFF4FF0000B5D4545DC059B49461A78D8
:102618002046FFF701FF4FF0010B1BF0070F03D116
:1026280041462046FFF7F8FE5F453BD9059B4946E2
:1026380013F80B202046FFF7EFFE0BF1010BBBF15F
:10264800100FEAD1364920464FF0000BFFF7E4FEA1
:102658005A46059B9A5CA2F120015F2928BF2E22C9
:1026680030492046FFF7D8FE0BF1010BBBF1100FE4
:102678001DD01BF0070F03D141462046FFF7CCFEC3
:102688005F455A46E5D841462046FFF7C5FEEBE7C9
:102698001F485546A1E741462046FFF7BDFE0BF10E
:1026A800010BB0E720492046FFF7B6FEC5E7059BBA
:1026B8003B440593049BDB1B04939AD1BAF1000FAA
:1026C8007FF41FAF204609B0BDE8F04F04F08BBC83
:1026D800064A05492046FFF79FFE15E78F92000836
:1026E80093920008CC890008B89200088A920008E2
:1026F800BB920008AC080020A80800209C920008A3
:10270800E0890008BF920008C59200083F700008E1
:1027180009700008D9320008D2920008CA9200084D
:10272800D4920008D6920008D092000873B542F2FD
:102738000F738B4228BF0B4605680F4A04460521D4
:10274800684602F087FE63680C495B6806460B2200
:10275800284604F03AFC63683246694628465B68B6
:1027680004F033FC636806495B681B22284604F0C2
:102778002CFC02B070BD00BFDA8F0008F59200088B
:10278800D9920008074A00210123904206D8064A38
:1027980001B901231360054B1860704740085B00BE
:1027A8000121F2E740420F00A8080020AC080020F1
:1027B800F8B5074F0D4604464618B44201D12846DD
:1027C800F8BD14F8011BBB6801485B689847F4E73B
:1027D800C4820008014B036000207047288A000863
:1027E8002DE9F047064600AF0C46002936D0E946E9
:1027F8008AB0D1E90012A3686D462148A8464FF077
:10280800050AC5E90501C5E9072348F810AF1D48C1
:10281800424600234FF42151FFF71EFDCD46D4E96F
:1028280003126369AD461848C5F810A0C5E905014B
:10283800C5E907231348002342464FF42151FFF707
:102848000BFDCD46E369114A0E48012104F0A7FBB0
:10285800A3690F4A0B48012104F0A1FB012E07D1FF
:10286800EFF305830B4A0748103B314604F097FB0A
:102878002146304601F0E4FCBD46BDE8F08700BFC4
:102888003B930008E08600086A93000899930008C3
:10289800A8930008D693000830BFFFF7FDBF00BF1C
:1028A8002DE9F0410B4EDFF8308006EB0807CC1B12
:1028B800054632460949204605F00EFAA019424657
:1028C8000021083C05F016FA2C6707F10800BDE85E
:1028D800F08100BF00000000080000001887000811
:1028E800054B5A699B689A421FBF044A536843F0D4
:1028F80080535360704700BF1C0A002000ED00E0C1
:1029080070B5294C06460D462848294904F01AFC9A
:10291800A36AD9043CD52548264904F013FC17209E
:10292800A36A1A0504D52148234904F00BFC182092
:102938001D4CA36A9B0512D51C48204904F002FCD3
:10294800A36BA26A100409D51D4A1848012104F096
:1029580026FB1EB1A36A23F40043A3621920124C7C
:10296800A36A590504D51148164904F0EBFB1A204F
:10297800A36ADA050ED50D48134904F0E3FB1B20C2
:10298800094A936A43F47F43936200232B7070BD16
:102998001620C5E7A36A9B04F2D504480B4904F046
:1029A800D1FB1C20ECE700BF00ED00E0E08600084A
:1029B800E9930008FF930008109400082394000886
:1029C8003C940008519400086C9400088494000812
:1029D80010B5204C2049214804F0B4FBA36A9901A2
:1029E80036D51E481E4904F0ADFB1E20A36ADA0145
:1029F80004D51A481B4904F0A5FB1F20154CA36AEF
:102A08001B0304D51548184904F09CFB2120A36A30
:102A1800590304D51148154904F094FB22200D4CA4
:102A2800A36A9A0304D50D48114904F08BFB2320AF
:102A3800A36ADB0304D509480E4904F083FB24206C
:102A4800044A936A6FEA03436FEA1343936210BD23
:102A58001D20CBE700ED00E0B3940008E0860008F5
:102A6800CB940008DE940008F89400081695000836
:102A78003B950008559500082DE9F843364D8046EA
:102A8800894636483649174604F05CFBAB6ADE06D1
:102A980027D53449314804F055FB1124AB6A1D078A
:102AA80004D531492D4804F04DFB12242A4DAB6A58
:102AB800980718D52D49294804F044FB6E6BAB6A7A
:102AC800190646D52A4A25483346012104F067FAF3
:102AD800B9F1000F03D0AB6A23F08003AB62132473
:102AE80003E01024DAE76FF015061B4DAB6ADA072E
:102AF80004D52049194804F025FB1424AB6A9B0629
:102B080004D51D49154804F01DFB1524124B9A6A7B
:102B1800D50602D49A6A90070AD55B68190507D5C5
:102B28004146304600F008FA10B180F309880224C3
:102B3800094B9A6A920642BF5A6A22F400525A62B4
:102B48009A6A42F0FF029A6200233B702046BDE871
:102B5800F8836FF01506C2E700ED00E0E086000894
:102B6800809500089695000810940008C9950008FB
:102B7800E1950008F7950008849400082DE9F041D4
:102B8800664B8AB0D3F8048000AF0446C8F3080542
:102B9800002686F31188BFF36F8F02F07F43B3F1ED
:102BA8007F4F07D102F00C03082B12D15C495D4816
:102BB80004F0C8FA002634460023FB71EB1E092BEB
:102BC80000F28A80DFE803F00A80837C888888889E
:102BD800888610074CBF0C460126EDE7524951483C
:102BE8004E4D04F0AFFA0023FB71EB6A9A0705D546
:102BF8004E494C4804F0A6FA002332E0EB6A002B59
:102C080001DA4B49F5E7EB6A5B00F5D549494548D8
:102C180004F098FA6B69A26943F480736B61BFF39F
:102C28004F8FBFF36F8F6B6932F8022C23F48073D8
:102C38006B61BFF34F8FBFF36F8F4DF602739A42EC
:102C480008D0AB6ADBB273B3FA1D01212046FFF747
:102C580013FF37E02368384A3248012104F09FF90E
:102C68002368FA79DAB907F1080504F1200C20681D
:102C780061682A4603C2083464451546F7D17A6A62
:102C8800002E45D0C2F3080121B96FEA52226FEA3B
:102C980042227A6207F108011846FFF7A1FD28379A
:102CA800BD46BDE8F081AB6A13F47F4F04D0F91D2F
:102CB8000120FFF725FE05E0AB6AB3F5803F9BD303
:102CC800FFF786FE0346CCE7FA1D0021BEE7F91D93
:102CD8000020EEE719498CE7194A1A4B18F4F87FD7
:102CE800E8468AB018BF13466A461749C2E9051371
:102CF8004FF400731384103D144BD56142F8103F14
:102D0800084800234FF41151FFF7A6FAC54673E7A8
:102D180022F4FF7222F00102BBE700BF00ED00E0E1
:102D280044960008E08600086F960008869600081A
:102D3800A7960008B5960008D4960008F0960008F3
:102D48002B96000816960008149700080400000146
:102D5800044B5A6942F010025A615A6922F008027B
:102D68005A61704700ED00E0EFF30880EFF3098146
:102D780001B57246FFF702FF01BD00BF0A4880F3A4
:102D88000888102080F3118808484FF4046140181F
:102D980080F30988EFF314800221084380F3148834
:102DA800BFF36F8F00F090F84024002080160020B9
:102DB800084B9B6883420BD1EFF3058343B1064B65
:102DC8005A6842F080525A605A6A22F400425A62A3
:102DD80002F006B81C0A002000ED00E014498A68D9
:102DE8004FF030001044EFF3098C80E8F01F1020FA
:102DF80080F31288BFF36F8F0E4F4FF000664A6959
:102E08008A603E60106F0C4C2060506F002353673F
:102E180080F3118804B5104600F0F2F8BDE80440CC
:102E280002F1300090E8F01F8CF309887047000029
:102E38001C0A002004ED00E0D40800201EF0040F56
:102E48000CBFEFF30880EFF30980816911F8021CC9
:102E58000229FFD001B5724604F069F901BD00BF2F
:102E680040B2002807DB044A4109012300F01F0093
:102E7800834042F82130704700E100E040B200286A
:102E8800A8BF00F1604001F10101B8BF064B4FEA4D
:102E98000111ACBF00F5614000F00F00C9B2B4BF2A
:102EA800195480F80013704714ED00E0044B054AEC
:102EB80023F07F039360BFF34F8FBFF36F8F70478B
:102EC8000000000800ED00E008B5FFF7EFFF0B4A2F
:102ED800D2F8883023F47003C2F88830EFF31483F3
:102EE80023F0040383F31488BFF36F8F01F094FA7F
:102EF80002F098F800F05AF801F0D2FA00ED00E07C
:102F080042F8203C009B42F81C3C0A49019B42F8CD
:102F1800183C029B42F8143C21F001014FF08073E9
:102F280042F8043C42F8081C0023203A0265436733
:102F3800704700BFB11C0008094A0346906870B189
:102F480013F1160F006E05D0A0F140029A4205D881
:102F5800834203D2814228BF002070470020704777
:102F68001C0A002008B515460B4A0C4B9060026FEE
:102F78001A600E4600F044F82C4686F309880020B3
:102F8800034B98472046002100220023014C20478C
:102F98005D710008B11C00081C0A0020D40800203C
:102FA800014B10221A61704700ED00E0044800232D
:102FB8001021C2180133612B82F80013F9D1704730
:102FC80000E100E008B5EFF30583064A103B02EB89
:102FD800C30152F8330049688847BDE80840FFF745
:102FE8007FBC00BF04830008024B034A0348012149
:102FF80000F08AB80000022000000020288A00089B
:10300800026E054B403A1A60044A4021C3E9011296
:103018001846012100F082B8D808002000000B15DE
:1030280008B503461048D0F89020C2F30722013AA9
:10303800934207D90D480E4A012103F0B0FF6FF003
:10304800150008BDC0F898300A6822F01F021A431C
:1030580042F01002C0F89C208A6842F00102C0F8D1
:10306800A0201846EDE700BF00ED00E0D886000874
:103078002B970008F0B50E4685B01F46044600257C
:10308800B5420DDA606810B397B1431E18420AD0F2
:10309800104A11482B46012103F081FF6FF01502F9
:1030A800104605B0F0BD1F28F2D921680B42EFD1B8
:1030B8002368019304F062F8A36801A90343D0B21E
:1030C8000393FFF7ADFF10F1160FE7D0421C01354F
:1030D8000C34D5E751970008D8860008044B052220
:1030E800C3F89420BFF34F8FBFF36F8F704700BFB3
:1030F80000ED00E0BFF35F8F024B0022C3F894207D
:10310800704700BF00ED00E010B5034C01232278A2
:10311800FFF7B0FF207010BD8B0A002008B50B4ADE
:1031280000231278FFF7A6FF10F1160F07D0084A00
:103138000021D2F89030C3F30723984200DB08BD82
:10314800C2F89800C2F8A0100130F2E78B0A0020FC
:1031580000ED00E02DE9F04357485849D0F8903089
:103168000D68C3F307239D4285B000F2A180FFF7E5
:10317800C1FF49680022954201F10C011AD1504C57
:10318800504F25706846FFF725FBDFF83C81DFF8D4
:103198003C9106460025AE421FD1237846490020BF
:1031A800D1F89020C2F3072293427BDBFFF796FF0A
:1031B80000204CE0C0F8982051F80C3C23F01F0385
:1031C800134343F01003C0F89C3051F8043C43F01B
:1031D8000103C0F8A0300132CDE7009800EB0511DB
:1031E8004FEA051CCB683B40B3F5000F44D00AD822
:1031F800B3F5001F2ED0B3F5800F34D0B3F5801F80
:1032080010D00135C7E7B3F1807F3ED0B3F1007F1E
:10321800F7D150F80C3088684A6803F0AFFF40F4E3
:10322800802009E050F80C3088684A6803F0A6FF4F
:1032380040F0885040F43020039001A92078CDE96F
:103248000123FFF7EDFE002828DA6FF0150005B01E
:10325800BDE8F08350F80C3088684A6803F08EFFA8
:1032680040EA0800E8E750F80C3088684A6803F03C
:1032780085FF40EA0900DFE750F80C3088684A68A3
:1032880003F07CFF40F08270D6E750F80C30886875
:103298004A6803F073FF40F08870CDE72378013364
:1032A8002370AEE7C1F89830C1F8A000013377E782
:1032B8004FF0FF30CBE700BF00ED00E0348A000894
:1032C8008B0A00200000F0FF000008110000020631
:1032D800F0B587B007460E4614460021102268460E
:1032E8001D4604F007FD02238DF802302A46054BDF
:1032F800019321466846CDE9047602F0E7F907B064
:10330800F0BD00BFA571000808B5024B1B689847BF
:10331800002008BDE4080020034B044A1860937895
:1033280043F0020393707047E40800201C0000205B
:1033380008B50649064821F00701C1F1005202F517
:10334800003203F06CFA002008BD00BF872400207B
:10335800E80800202DE9F041104E114F05460024E1
:103368004FF001082B7871691A19D2B208FA02F2E3
:1033780001EA02008A4309D153FA84F3706157F8CD
:1033880033201AB107EBC303596890476A780134B0
:10339800E3B29A42E6D2BDE8F08100BF003C0140AA
:1033A800F4080020044B184400230133994200F824
:1033B800012BFADC704700BF8400002007B5062205
:1033C80001210020FFF7EEFF002211460620FFF73B
:1033D80055FD012108460722FFF7E4FF00221146A8
:1033E8000720FFF74BFD082201210220FFF7DAFF33
:1033F800002211460820FFF741FD09220121032080
:10340800FFF7D0FF002211460920FFF737FD0A22F7
:1034180001210420FFF7C6FF002211460A20FFF70A
:103428002DFD052108461722FFF7BCFF0022114693
:103438001720FFF723FD282206210A20FFF7B2FFF5
:10344800002211462820FFF719FD4FF48043074852
:103458004422CDE9002383681B6823B16946984755
:1034680003B05DF804FB6FF05700F9E744810008EA
:10347800034660B1B0FA80F2C2F11F02D2B2054928
:103488008856054A11680B431360FFF7E9BCFF2211
:10349800F5E700BF84000020003C0140024A1368A1
:1034A80023EA000313607047003C0140032921D838
:1034B800DFE801F0020C10190F4B9A6822EA0002AB
:1034C8009A60DA6822EA0002DA6070470A4B9A6862
:1034D8000243F5E7084BDA680243DA609A6822EAA1
:1034E80000029A607047044B9A6802439A60DA684F
:1034F8001043D860704700BF003C014030B5B0B100
:10350800B0FA80F3C3F11F03DBB20B4850F8334025
:103518008C4204D100EBC3056D68954205D044B9CF
:1035280040F8331000EBC3004260002030BDFF2399
:10353800EBE76FF00F00F9E7F408002060B1B0FA8C
:1035480080F3C3F11F03DBB2044A002142F83310B1
:1035580002EBC30251607047FF23F5E7F40800202F
:1035680000F00302043292000F23934043EA9000D4
:10357800C3B20233054A52F82320030C02EA104072
:1035880093FAA3F3B3FA83F3D840704700380140A5
:1035980038B50888254BC0F30B0007281B680D4673
:1035A800144614D810B96FF0850038BD02380528C4
:1035B80006D8DFE800F03203323020284FF4FA430F
:1035C80023602968B1F5805F29D20020EDE74428FF
:1035D8000ED82F28E7D900F57D61C1F30B01012230
:1035E8008A4013490A42EBD14028DCD15B08E7E75F
:1035F800A828E5D0D7E700F0B1F84FF4C072C308A7
:1036080053439B08DCE700F0A9F84FF4C072C308E5
:103618005343DB08D4E7074BD2E70023D0E7C1F3D5
:1036280013310131B3FBF1F32360CEE774000020BE
:103638001101100000127A0070B5444D444C00F09E
:10364800B5F8284603F05EFE00F0C4FCA368414AC2
:10365800C3F30313D35C20FA03F613781D41AE427B
:1036680002D2284600F0FEFC236843F4802323603E
:10367800236843F480332360354B1A689103FCD5E3
:103688005A6F42F001025A675A6F9207FCD59A683E
:1036980002F00C02082A17D11A68940707D41A688E
:1036A80042F001021A602A4A13689807FCD5284B91
:1036B8009A6822F003029A609A6812F00C0FFBD104
:1036C8009A6822F0F0029A60214C236823F08073F4
:1036D800236023689901FCD4636823F4403343F4DE
:1036E80080336360636823F0706343F00063636052
:1036F80000F038F8236843F080732360144B1A688D
:103708009201FCD59A6822F0F0029A609A6822F039
:10371800030242F002029A609A6802F00C02082A38
:10372800FAD1AE4202D3284600F09CFC0A4B074A65
:103738001A60074A936823F4E05343F48053936074
:10374800936823F460439360002070BD00D8B805E7
:1037580000380240009900087400002000487047B3
:1037680000127A000C4B0D495A6811400C4A0A4362
:103778005A605A680B4922F4403242F480325A6047
:103788005A6822F0E04242F480325A605A68114086
:10379800054A0A435A607047003802400080BFFF5C
:1037A800086040000080BFF008604008064B1A6CB3
:1037B80042F080521A641B6C82B003F0805301936C
:1037C800019B02B0704700BF0038024008B50748A7
:1037D80004F0FDF838B10648FFF79EFD0448FEF7EF
:1037E8005DFA002008BD6FF01200FBE7C4820008F4
:1037F800FD3700080A2838B5074D044604D1AB68E0
:103808000D215B6828469847AB6803485B68E1B2BE
:103818009847204638BD00BFC48200082DE9F84308
:10382800D0F80480D0F81090D8F8080017460D4654
:103838001E4603F0BEFCB7F5001F044616D1284605
:10384800D8F80840FFF78CFE84420CD1294603F0D3
:10385800B0FC0446FFF722FE2046FFF76FFE00216A
:103868002046FFF723FE0020BDE8F883B7F5800F58
:1038780020D0B6F1806F19D0B6F1C06F18D0B6F16C
:10388800007F1AD1022610494A462046FFF736FE25
:10389800B0B9D8F80810284603F08EFC2046314607
:1038A800FFF704FE2046FFF7E3FDDCE70126EAE721
:1038B8000326E8E76FF08500D6E76FF01500D3E739
:1038C8006FF00F00D0E700BF8175000838B50369B5
:1038D800044658600A4D284604F079F860B1AB6890
:1038E80061681B680C3123B12846984700EAE070EC
:1038F80038BD6FF05700F9E76FF01200F8E700BF26
:10390800448100082DE9F0471E4F044600EBC1062C
:103918000025B44201D1002014E02068C30600F05D
:103928001F0911D4656845F02005C0F3481AC0F393
:103938004420102823D857F82080B8F1000F0DD163
:103948006FF01200BDE8F087B9F1100F04D0B9F19B
:10395800110FEAD16568E8E73025E6E7404604F04C
:1039680036F80028ECD04B462A460AF00F014046AC
:1039780003F018FE002804F10804CADAE2E76FF041
:103988001500DFE7F48A000843681B6803F1140296
:1039980052E8002F42F0010203F1140040E8002130
:1039A8000029F3D1134A934213D0A2F54C42934213
:1039B8000FD002F5806293420BD002F580629342E9
:1039C80007D002F58062934203D002F54442934245
:1039D80003D11A6942F040021A6103F10C0252E85D
:1039E800002F42F4807203F10C0040E80021002906
:1039F800F3D170470010014043681B6803F11402BB
:103A080052E8002F22F0010203F1140040E80021DF
:103A18000029F3D1134A934213D0A2F54C429342A2
:103A28000FD002F5806293420BD002F58062934278
:103A380007D002F58062934203D002F544429342D4
:103A480003D11A6922F040021A6103F10C0252E80C
:103A5800002F22F4807203F10C0040E800210029B5
:103A6800F3D1704700100140024A0348012103F0D6
:103A78008DBA00BF3D98000800870008F8B50369B3
:103A88000C465E6823794168012B34D09A1E554252
:103A98005541AD026279022A9CBF354F37F812C0F2
:103AA800A27988BF4FF4005C042A27D0003B18BFD6
:103AB80001231B03E279012A0A680CBF4FF44077FF
:103AC8000027A642D1681CD121F4B05129430B43E9
:103AD800D360136923F4405343EA0C03136143682A
:103AE8001A68536923F440733B4353613168BDE856
:103AF800F84003F0F6BE4FF4C065CBE74FF48053AF
:103B0800D8E701F4C0618D421FBFD16821F4C061BC
:103B18002943D160426811680A6902F44052944509
:103B28001FBF0A6922F4405242EA0C020A61426845
:103B38001168CA6802F4805293421FBFCA6822F40F
:103B480080521343CB6043681A68536903F4407387
:103B58009F421FBF536923F440733B43536121685D
:103B68003368994203D003F0BCFE23683360F8BD84
:103B7800048D00082DE9F341046947680546354876
:103B8800206003F024FF50B9334A3448012103F080
:103B9800FDF96FF01204204602B0BDE8F0812068FC
:103BA800F96883681B683BB92D4A2C48012103F04A
:103BB800EDF96FF05704EEE798470446E8B9386A1C
:103BC80001AA002103F006FD041EE4DB019B00228C
:103BD80019791868FFF796FE041EDCDB6E682B69FE
:103BE8003468D3F80480E36823F40053E360706812
:103BF80003F0EDFE48B91B4AC7E7194A17480121E7
:103C080003F0C4F9002CC6DBD9E7D6E901018368C3
:103C1800DB6803B1984704F10C0353E8003F43F015
:103C28000C0304F10C0141E80032002AF3D14146AB
:103C38002846FFF723FF337D1BB1636943F0080370
:103C48006361E36843F40053E3607B6A284698475E
:103C58000024A0E7448100086B980008008700084A
:103C68008A980008AA9800082DE9F04143681C6862
:103C78000369D3F804800B790D46012B4979AE7995
:103C880040D1022959D9042E54D04FF480574FF40B
:103C9800C06203238B424DD1002F00F08680002A9A
:103CA80014BF03220422B24244D1EB79C3B1012BE1
:103CB80040D1404B9C4213D0A3F54C439C420FD0BB
:103CC80003F580639C420BD003F580639C4207D0C8
:103CD80003F580639C4203D003F544439C4229D1F9
:103CE800E36823F40053E3602946FFF7C7FEE3685F
:103CF80043F40053E36095E8030088E803000020DC
:103D0800BDE8F081022B08D1022921D9042E11D057
:103D18004FF480624FF48057BBE702290A461FD947
:103D2800042E04D133B94FF480571A46B1E763BB68
:103D38000329B8D06FF08500E2E71F4A042E32F855
:103D480011C0F7D04FF4C062033B012B10D8F1E744
:103D5800194A042E32F811C0ECD04FF48062F3E710
:103D6800154A042E32F811C016D1002BE2D11A469A
:103D78004FF48057BCF5805F13D0BCF5405F12D07C
:103D8800BCF1000F85D1012384E7033B012BD1D976
:103D98000022BFE70022D7E7002BFBD11A461F46B7
:103DA800E8E7002376E7022374E7002A14BF02221B
:103DB800032278E700100140048D000810B54FF089
:103DC800E0230F499C691A6908689B690D4902F448
:103DD800803234B993B903464AB90A681044C01A04
:103DE80010BD002B08BF03460AB9A342F5D90A68DB
:103DF80002440A604FF0E0221269EEE70446F3E756
:103E0800180A0020140A00200A4B102283F82320E5
:103E1800094B4FF416521A60084B002018604FF0F7
:103E2800E02342F27F525A6198611A6942F0070210
:103E38001A61704700ED00E0180A0020140A0020FB
:103E4800684620F007018D4619B5FFF7B7FF114BFB
:103E58001149D3E900420868001942F10002C3E998
:103E680000020E4A00230B60D2E900414FF41653BA
:103E7800001BB0FBF3F043431B1941F10001C2E9F9
:103E8800003101F0A9F9FEF72BFDBDE81940854680
:103E9800704700BFD0060020140A0020C806002082
:103EA8002DE9F041DFF8DC8099B1421C0BD14FF0CD
:103EB800E022136923F0010313614FF07F43C8F830
:103EC8000030BDE8F081D8F80060012807DC002741
:103ED8000BE0431CD8F80060F7D140F2D26040F202
:103EE800D3639842A8BF1846471EEFF311851023E5
:103EF80083F31288BFF36F8FFFF760FF224C4FF0F8
:103F0800E0239969D4E90023801843F10003C4E948
:103F180000031E4B00221A601D4B1A68831A2ED408
:103F28004FF4165C0CFB073303F515533F33B3FB13
:103F3800FCF7131A0CFB0733B3F5806F154A38BF2B
:103F48004FF48063934228BF13464FF0E022C8F82D
:103F58000030013B90695361002393618142A1EBDA
:103F68000003D4E9001238BF9B195B1842F1000224
:103F7800C4E9003285F31188BFF36F8FA1E74FF4CE
:103F88008063E2E7180A0020D0060020140A002007
:103F9800C806002000C3FF0038B5EFF311851023D1
:103FA80083F31288BFF36F8F084B1C68084B1B689C
:103FB800E41AFFF703FF85F31188BFF36F8F4FF4FF
:103FC80016532044B0FBF3F038BD00BFD0060020E4
:103FD800C806002008B520498B6803F00C03082B9D
:103FE80007D00C2B20D01D481D4A042B18BF1046A3
:103FF80008BD4A684B68496813F4800314BF174822
:104008001748C1F3881118BF002302F03F02A1FB33
:104018000001FCF765FD104B5B68C3F301430133F6
:104028005B00B0FBF3F0E3E74A684B68496813F4B8
:10403800800314BF09480A48C1F3881118BF002338
:1040480002F03F02A1FB0001FCF74AFD024B5B684E
:10405800C3F30273E5E700BF0038024000127A009C
:104068000024F400002800F0CC80674B1A6802F4A2
:104078004042B2F5404F51D102F10F6202F58C5225
:10408800904211D91A6802F44042B2F5004F51D15A
:1040980005235D4A126802F44042B2F5804F74D19C
:1040A800012B38BF012370E0584A904208D91A689A
:1040B80002F44042B2F5004F40F095800423E8E74F
:1040C8005349884219D8534A90421ED8524A9042BE
:1040D80052D91B6803F44043B3F5004F4FF0010376
:1040E8003AD0494A126802F44042B2F5804F4CD1A6
:1040F8008842D5D8474A90423CE01A6802F44042C8
:10410800B2F5004F53D00323EBE71A681B6803F49A
:104118004043B3F5804F4FF00203C0E71A6802F43A
:104128004042B2F5004F4DD102F10F6202F5A342B1
:10413800904207D91B6803F44043B3F5804F4FF012
:104148000503ACE7314A90424DD8314A90422ED807
:10415800304A9042DAD800232F4A904213D92A4B8A
:104168001B6803F44043B3F5804F46D1294B98426E
:104178004FF0010333D993E71A6802F44042B2F5CD
:10418800004F1CD10023204A126824490A6822F0F3
:104198000F021A430A600A6802F00F0293421CBF1A
:1041A8000A6802F00F02981A18BF012070471B68AE
:1041B80003F44043B3F5804F4FF003036FE71B68E8
:1041C8000023E2E71B6803F44043B3F5804FF7D1BF
:1041D8000F4B98420FD80F4B984210D800230E4A25
:1041E8009042D2D95CE71B6803F44043B3F5804F93
:1041F8004FF0040353E7032352E70123C5E70223E3
:10420800C3E70120704700BF00700040000E270779
:10421800804A5D050087930380C3C901003C0240C2
:1042280010B50446FDF748FF0348044A012102F08F
:10423800ADFE204603F0D6FBE08600081099000882
:104248002DE9F843044600AF0D46EFF3118810231B
:1042580083F31288BFF36F8F0428294A98BF294B2C
:104268009668117C94BF53F82030274BE9468AB0F2
:104278006A462648C2E9073140F201339384244B49
:10428800C2E9050442F8103F224800234FF4315197
:10429800FDF7E2FFCD4645B1EB69C3F3080323B14F
:1042A8001D4A1C48012102F071FE2EB1304603F070
:1042B800EBFB08B1037803B91848E9468AB06A46A7
:1042C800174BD061C2E9053640F201331384154B10
:1042D80042F8103F00230F484FF41151FDF7BCFF7F
:1042E8002946CD462046FFF79BFF88F31188BFF388
:1042F8006F8F3046FEF75CFDBD46BDE8F88300BF12
:104308001C0A00202C8C00081F9900083599000809
:1043180005000001E08600085D9900082D99000855
:104328007E9900080400000138B50A4B53F8204074
:10433800013053F82050A54200D838BD606830B12C
:10434800037FDB0701D403F055FB0834F3E7236848
:104358009847FAE7408C000870B52A4B2A4C2B4D39
:10436800012286B003201A70FFF7DEFF01F06CF817
:104378000420FFF7D9FF2646AE4204F1300410D3DB
:1043880000F034FC204C224EAC4226D300F042FC14
:10439800FCF7D8FD1F4A137B23F00103137306B003
:1043A80070BD54F80C3C059354F8103C049354F831
:1043B800143C039354F8183C029354F81C3C0193A2
:1043C80054F8203C009354E90A2354E90C0100F006
:1043D800F5F954F8303C5E65CDE7D4E90A23B3F12A
:1043E800FF3F08BFB2F1FF3F05D052EA0301206842
:1043F80003D100F0CBFC3034C6E73146183000F06A
:104408005BFEF8E78C0A00200C8600080C86000882
:10441800837B00085807002008B50348034A002199
:10442800121A03F0FEFA08BD00010020900A0020CD
:1044380070B5002386B00122CDE90423134E144D34
:1044480001930F22CDE902321249142303FB0055D0
:1044580006EBC01604464FF4C07000FB04110E4B67
:1044680000954FF4A072304600F0A8F9737B0B4A10
:10447800EE6023F0040373734FF4046304FB033307
:1044880013442C746B6006B070BD00BFD8060020C2
:104498001C0A0020C01E0020337A00088016002065
:1044A800BFB50020FFF740FF2B4B83F308882B4C48
:1044B8002B4F636943F4007363610025F02384F88C
:1044C8002230E57725766576A57684F82050636AEC
:1044D80043F4E0236362FEF73BFCFEF761FD4FF017
:1044E800FF33A362E362FEF735FEFEF77DFDFDF7BD
:1044F80045FD1C481C4C00F0D9F903F067FAFDF79C
:10450800F7FB0120FFF710FF0220FFF70DFF00F077
:10451800B5FB164B16495C61164B05930122072320
:10452800CDE90332CDE901553B464FF48062009551
:10453800204600F043F9627B064622F0040220463A
:10454800627303F0DDFA2846FFF772FF3A463146F8
:104558002046FEF707FD00BFC01E002000ED00E06A
:1045680061430008D8070020580700201C0A0020D3
:1045780040200020F69100082DE9F3410446174633
:104588001E46EFF31188102383F31288BFF36F8F51
:10459800C368334A7BB180689168884219D057EA6A
:1045A800060318D188F31188BFF36F8F6FF00F00DF
:1045B80002B0BDE8F081916891F90E1021610133D4
:1045C800E3609368A36088F31188BFF36F8F0020BE
:1045D800EEE72169F2E791F90E1090F90E30994251
:1045E800A8BF19466FF07E029142B8BF11468B42B0
:1045F8002DDD03F025FA0546CDE900761948224657
:10460800414600F039FA0028E1D0EFF31186102373
:1046180083F31288BFF36F8FA068D0B12368216934
:104628009C420AD04BB193F90E309942A8BF194663
:104638006FF07E039942B8BF194603F001FA40B102
:104648000848314600F0ACFA6FF00A00B0E70025E0
:10465800D2E7002DF4D186F31188BFF36F8FF3E70B
:104668001C0A00208D0A0020F8B583680546002B37
:104678003FD0234A926893423ED1C368012B03D9A5
:10468800013BC3600020F8BDEFF31187102383F3CB
:104698001288BFF36F8F0169806803F0D1F92C6825
:1046A800AC4207D10023C5E9023387F31188BFF371
:1046B8006F8FE7E7002CF5D0D4E9003213605A6019
:1046C800637B002623F002036373C4E90066A660D7
:1046D80004F1180003F0AAFAAC6094F90E302B61CB
:1046E8002046A66703F00CFA0648394600F058FA47
:1046F800C8E76FF01500C6E74FF0FF30C3E700BF0B
:104708001C0A00208D0A002070B5EFF311861023D3
:1047180083F31288BFF36F8F0468A0421AD0CCB11C
:10472800D4E9003213605A60637B002523F002034A
:104738006373C4E90055A56004F1180003F076FA24
:104748002046A56703F0DCF931460848BDE870400B
:1047580000F026BAD0E902329A4218BF01338360CA
:1047680086F31188BFF36F8F70BD00BF8D0A0020DC
:1047780013B5EFF31181102484F31288BFF36F8F00
:10478800846844B1013C846081F31188BFF36F8F62
:10479800002002B010BD52EA030406D181F311884B
:1047A800BFF36F8F6FF00F00F3E7CDE900230246E8
:1047B800014800F061F9ECE78D0A00202DE9F0438B
:1047C800073285B022F007020E461F461099017382
:1047D80000F158037F32C0E916330446002322F063
:1047E8003F020421836041733F2A0F98A073C4E9F4
:1047F8000633E37306F14009A2F1400805D883F3B4
:104808001188BFF36F8F084602DFB5182946204686
:10481800FEF746F807300E9B20F00700A066C4E9B3
:10482800189802930D9B01932D1A0C9B00932A460E
:104838003B4631462046FEF763FB00236365044B85
:104848009B6803B1DB6EE366284605B0BDE8F083DC
:104858001C0A0020F0B587B000250595109D049529
:104868000F9D03950E9D0295DDE912760D9D01952C
:104878000C9D00950446FFF7A1FFB6F1FF3F08BF66
:10488800B7F1FF3F05D056EA070305D1204600F0EF
:104898007DFA204607B0F0BD3A46334604F11800C9
:1048A800014900F009FCF4E7837B000840F201139A
:1048B80083810023C0E91833C366014B98607047B1
:1048C8001C0A0020094A93686FF00A019967084991
:1048D80058674B6843F080534B60002383F311887B
:1048E800BFF36F8F9368986F704700BF1C0A002052
:1048F80000ED00E070B590F90D20437B002A36DB0F
:10490800D90634D11B4C63F07F032246437352F817
:10491800183FE169934207D1C0E900210860E061CE
:1049280011E09942F8D01B68002BF5D090F90E5091
:1049380093F90E60B542F4D0AE42F2DD5968C0E991
:10494800003108605860A569954200D005B9E5684E
:10495800A3685A7BD20604D1DA897F2A01D9AA69C9
:1049680032B1AB4202D0284600F004FB656170BD4D
:104978006361FCE71C0A002038B590F90D20437BE1
:10498800002A014604DA03F07F03437303F07EF83C
:104998000D4D2A46AB6852F8184F944200D004B91E
:1049A800EC688B4207D05A7BD20604D1DA897F2A79
:1049B80001D9A2692AB1A34202D0204600F0DAFA4E
:1049C80023466B6138BD00BF1C0A0020B3F1FF3FCE
:1049D80008BFB2F1FF3F03D00249183000F06CBBAA
:1049E800704700BF837B000870B590F90D20437BAA
:1049F800002A014604DA03F07F03437303F046F804
:104A08004B7B1C4C63F07F0322464B7352F8183FD4
:104A1800E069934207D1C1E900200160E16111E03A
:104A28009842F8D01B68002BF5D091F90E5093F9F5
:104A38000E60B542F4D0AE42F2DD5868C1E90030EC
:104A480001605960A569A368954200D005B9E56879
:104A58008B4207D05A7BD20604D1DA897F2A01D942
:104A6800AA692AB1AB4202D0284600F083FA2B4645
:104A7800636170BD1C0A0020F8B50E4B0C46114648
:104A88000D4A98681060DDE90667EFF3118210227D
:104A980082F31288BFF36F8F9D68284603F008F8E9
:104AA800284632463B46FFF791FF2046BDE8F840CE
:104AB800FFF708BF1C0A00203C0A0020F8B504468E
:104AC800EFF31187102383F31288BFF36F8F437BB3
:104AD80003F01F02002A0CBF0126002649B239D173
:104AE80003F07F03437302F0D1FF2C4D437B8173A6
:104AF80063F07F032A46437352F8183F934227D145
:104B0800E869C4E900200460EC610FE09842F8D03D
:104B18001B68002BF5D093F90EC06145F6D08C4583
:104B2800F4DD5968C4E900310C605C60AC699442FA
:104B380000D004B9EC68AB689C4202D0204600F073
:104B480019FA6C6187F31188BFF36F8F3046F8BD8F
:104B5800E869DEE79B071ED5856802F097FF817339
:104B68002B689D4209D16B68C4E900531C606C60D6
:104B7800E8E76A689342F6D01B68002BF3D093F9F4
:104B88000E209142F5D08A42F3DD5A68C4E900321A
:104B980014605C60D6E78173D4E700BF1C0A00206C
:104BA80049B9EFF3058030B9054B5A699B689A42B9
:104BB80001D0FFF787BE81F31188BFF36F8F70476D
:104BC8001C0A0020034648B9EFF3058232B9064AA9
:104BD80051699268914201D0FFF774BE83F311883E
:104BE800BFF36F8F704700BF1C0A0020EFF31181DD
:104BF800102383F31288BFF36F8F054B9A68D37B1A
:104C0800013BD37381F31188BFF36F8F704700BFE7
:104C18001C0A002070B5EFF31186102383F3128865
:104C2800BFF36F8F144DAB68DA7B0132DA732A4613
:104C380052F8184F944200D004B9EC685A7BD20657
:104C480004D1DA897F2A01D9A2692AB1A34202D004
:104C5800204600F08FF923466B6186F31188BFF375
:104C68006F8FEFF31180102383F31288BFF36F8FD8
:104C7800BDE87040FFF7A6BF1C0A0020024B03F1F5
:104C88001802C3E9062270471C0A002070B5EFF32A
:104C98001186102383F31288BFF36F8F1B4CA16812
:104CA800E0690B68814214BF1A46002249680B600C
:104CB8005960A368E1692AB9154AC3E900210B6064
:104CC800E3610CE093F90E0092F90E50A84218D057
:104CD800854216DD5168C3E900210B605360A56960
:104CE8000B4B9D4200D005B9E568A3689D4202D0F0
:104CF800284600F03FF965613046BDE87040FFF78F
:104D0800E1BD8A42D8D01268D5E700BF1C0A00204E
:104D1800340A0020F8B550EA010306460C4603D1D0
:104D2800FFF7B4FF0020F8BDEFF31187102383F3DA
:104D38001288BFF36F8F124D124BA8681860FFF7E7
:104D48001BFEA868104923463246183000F0B4F913
:104D5800AA68537B43F00403537304463846FFF7AD
:104D6800B1FDAB68D3E90A23B3F1004F08BF002AAD
:104D7800D8D102F083FF201A20EAE070D3E700BF01
:104D88001C0A00203C0A0020837B000838B5044632
:104D9800EFF31185102383F31288BFF36F8F437BE2
:104DA8005B070FD5183002F041FF637B23F0040343
:104DB80020466373FFF79EFD29460548BDE8384045
:104DC800FFF7EEBE85F31188BFF36F8F38BD00BFC4
:104DD8008D0A0020014B9868704700BF1C0A00200C
:104DE8002DE9F8430446077BEFF31185102383F37D
:104DF8001288BFF36F8F437B190705D585F3118898
:104E0800BFF36F8FBDE8F883D90943F008025AD180
:104E18004273A36813B1204602F040FE04F1180063
:104E280002F004FFA66D04F15808B04511D04FF008
:104E3800000976B1304602F031FE06F1180002F0A2
:104E4800F5FEC6F878903046FFF754FDA66DB045DC
:104E5800EFD1DFF8B880D8F808309C423BD1EFF3A7
:104E68000589B9F1000918BF4FF00109D8F8186091
:104E7800274A964200D00EB9D8F80C60B34202D047
:104E8800304600F077F8C8F81460B9F1000F02D086
:104E98002048FFF70BFDD8F808309C4231D1EFF3DA
:104EA800058373BB227BD20718D42846FFF70AFD77
:104EB800FB07A7D5002383F31188BFF36F8F042363
:104EC800184602DF9EE703F07F0343F008034373AD
:104ED80002F0DCFD9DE74FF00009C7E785F3118874
:104EE800BFF36F8F83F31188BFF36F8F04231846C6
:104EF80002DFEFF31180102383F31288BFF36F8F63
:104F0800D4E785F31188BFF36F8FD1E71C0A00201F
:104F1800340A0020D8070020044BC01A044BC010E4
:104F28005843044B01221A54704700BF5808002008
:104F3800ABAAAAAA8D0A0020C3897F2B12D80A4BD4
:104F48001B6863B1094B90F90E201B689A4209DB74
:104F5800437BDB0606D1064BC31A18BF012303F0B7
:104F6800010070470023FAE778000020400A00207B
:104F7800D806002070B50E4B0E4C1E7C06EB46037F
:104F880004EBC3040546204602F050FE0A4B0022FB
:104F980028469A55FFF7D0FF48B1084B08491A68C8
:104FA800013A2046D317BDE8704000F085B870BDBF
:104FB8001C0A0020580800208D0A002078000020D4
:104FC800214F000838B5EFF31185102383F31288B9
:104FD800BFF36F8F104B114A9C681068A04206D12E
:104FE800FFF7C8FF85F31188BFF36F8F38BD002125
:104FF8001B7C11600A4AD35C002BF3D02046FFF7D4
:105008009BFF0028EED0637BDB0602D12046FFF72A
:10501800EBFC2046E4E700BF1C0A00203C0A002005
:105028008D0A00200748084A084908B5121A02F0F4
:10503800FAFC0748074A0849BDE80840121A02F076
:10504800F2BC00BF00000020FC000020189A0008F5
:105058000000002000000020189A0008024B186881
:10506800984208BF002070477C000020034B1B6853
:105078000BB9FEF791BF0020704700BF440A00201B
:1050880030B570B10B4B5B6898420AD0036843B1E6
:10509800D3E90421D0E90445121941EB0501C3E91C
:1050A8000421D0E9003213605A600023C0E90033BC
:1050B80030BD00BF7C000020B3F1FF3F08BFB2F154
:1050C800FF3F2DE9F84F0446994615461F467AD00A
:1050D8008160EFF31188102383F31288BFF36F8F79
:1050E800B9F1000FDFF8E4A020DBFFF7BFFFDAE932
:1050F8000027013549F100092D1849EBE073C4E98F
:105108000453AD18064643EB07074FF00109FFF7B4
:10511800A5FFDFF8BCE0DEF804A00346EBB9C4E95C
:1051280000EACAF80040CEF8044028E0DAE90012A4
:105138006FF001035B1A4FF0FF3161EB02025B1B5A
:1051480062EB0902012B72F10001BCBF01230022AE
:10515800C0E904324FF00009D9E7D3E9041CD4E9C7
:1051680004208A4270EB0C0B24DA891A5A686CEB1B
:105178000000C3E90410C4E9003214605C60FFF762
:105188006DFF84420ED1134B1B685BB9B9F1000F58
:1051980002D1FFF76BFF0646304602F030FD0021D2
:1051A800FEF77EFE88F31188BFF36F8F28463946D5
:1051B800BDE8F88F521A60EB0C009A45C4E9042048
:1051C800ADD01B68AAE700252F46EFE7700800203E
:1051D8007C000020440A00202DE9F047EFF31185F8
:1051E800102383F31288BFF36F8FDFF8A490DFF8E2
:1051F800A480C9F80000FFF731FF00260027D9F87E
:105208000030D8E900ECD91750B1D0E90442A342E4
:1052180071EB020A1CDAE41A62EB0102C0E90442EB
:1052280013EB0E034FF000044CEB01012046C8E9D4
:105238000031C9F8004002F0E2FC2146FEF730FEDA
:1052480085F31188BFF36F8FBDE8F047FFF7BABE4B
:1052580014EB0E024CEBE473C0E90467C8E90023C1
:10526800FFF70EFF85F31188BFF36F8F83689847A8
:10527800EFF31185102383F31288BFF36F8FD9F8EA
:1052880000301B1BC9F80030FFF7E8FEB7E700BF86
:10529800440A00207008002010B5EFF31184102391
:1052A80083F31288BFF36F8FFFF7E0FE054A0346CA
:1052B800D2E90001181841EBE37184F31188BFF3B8
:1052C8006F8F10BD70080020F8B50546EFF3118701
:1052D800102383F31288BFF36F8F036823B187F31A
:1052E8001188BFF36F8FF8BDD0E90A46611C46F1FB
:1052F8000002022972F1000236D3012C76F1000275
:10530800BCBF01241E46013C46F1FF3602F0BAFC40
:10531800013041F10001001946EB0101012871F14A
:10532800000130DB02F0AEFC013041F100016FF00A
:105338000203001946EB010183426FF000438B41E1
:1053480026DB02F09FFC013041F100016FF0010201
:10535800001946EB0103121A4FF0FF3161EB03030A
:105368001C492846FFF7A8FE2B6B01332B632B6AD9
:1053780093B93C462B4653F8185F9D4200D0D5B9E7
:1053880084F31188ADE76FF001024FF0FF33E7E7D0
:1053980000224FF00043E3E787F31188BFF36F8FD4
:1053A8002B6A28469847EFF31184102383F3128859
:1053B800BFF36F8FDEE7284602F0B1FB0023AB672F
:1053C80084F31188BFF36F8F2846BDE8F84002F0D8
:1053D80097BB00BFD15200082DE9F04105461C4695
:1053E80090461F46EFF31186102383F31288BFF30C
:1053F8006F8FB4F1FF3F08BFB2F1FF3F05D186F3CD
:105408001188BFF36F8FBDE8F081002C09DB012AFA
:1054180074F10003BCBF0122002412F1FF3844F1EB
:10542800FF37284602F002FCDDE906010023C5E942
:105438000A012B6342463B4628460249FFF73CFED9
:10544800DDE700BFD1520008014801F07DBA00BF76
:10545800E39900080CB430B58BB004460D46202201
:10546800002102A802F046FC02238DF80A30002D24
:105478000C4B0393069412DB01D06B1E1C440FAA3D
:105488000E99079402A8019200F020F915B1069B25
:1054980000221A700BB0BDE8304002B070470024FB
:1054A800EDE700BF87800008242A2DE9F041044673
:1054B80001D8012A49D102F0EBFD354B16221A50CA
:1054C80001B10C600020BDE8F08135462E4616F883
:1054D800010B2028F9D0A0F10907042F0346F4D9BD
:1054E8002B2834D02D2835D14FF0010C6B78AE1C09
:1054F800302B36D1307840F0200078282DD132F08A
:1055080010002AD173783446102202360CF1004775
:10551800013F0020B7FBF2FE02FB1E78392B82BF49
:1055280003F1FF3343F02003263B303B9A421FD957
:10553800704502D819D1984517D24CF0020C35465F
:10554800344615F8013B2E46E8E70546BEE74FF01E
:10555800000CCBE74FF0000CCAE7002A08BF08226E
:10556800D4E7002A08BF0A22D0E700FB0230E6E7AA
:1055780001B10C601CF0010F18BF40421CF0020F73
:10558800A1D002F085FD024B22221A5038469AE734
:105598000C0000002DE9F04101260746B24201DC6B
:1055A800BDE8F0813B461F4613F8014B002CF7D0AD
:1055B800252CF8D11C78252C07F10207F2D00023FE
:1055C800DFF804819C461D461F2D18D8A4F1200E33
:1055D800BEF1100F09D9A4F1300EBEF1090F1ED883
:1055E8000A2404FB03E3202504E028FA0EFE1EF03B
:1055F800010F06D017F8014B002CE5D128E07F2DCC
:105608001CD8A4F1300EBEF1090FE9D9242C10D111
:10561800BCF1000F46D0B34246D00023EAE724F09D
:10562800040EBEF12A0FF8D06C2C09D145F0800584
:10563800E0E724F0040EBEF12A0FEED06C2C22D045
:105648006C2C1BD8682C23D06A2C28D04C2C26D044
:10565800BCF1000FA4D0B445A0D144F02007A7F1B5
:10566800650CBCF1020F0B6801D9612F1ED10733FD
:1056780023F0070308330B6001368EE7742CB9D08A
:105688007A2CB7D0E4E72C0648BF45F40075CDE77F
:10569800EC0548BF45F4007545F48075AAE745F464
:1056A8002075A7E79C46B8E76324D6E7692C02D0A3
:1056B80007D8632C03D02F0601D5AC05D7D4043303
:1056C800D9E7732CF6E700BF892801002DE9F04FD0
:1056D80095B043680393837880469807CDE908120C
:1056E80017D50D920B4600251F78A7B1252F16D088
:1056F80001330793039B414638469847002805F134
:10570800010580F2398498F8023043F0040388F8E0
:1057180002304FF0FF35284615B0BDE8F08F5F78AE
:105728009A1C252F0792E5D000242646A246A346B8
:10573800BBF11F0F32D8A7F12003102B0AD8DFE8DE
:1057480003F02409092A0909091B0909092209275B
:1057580009091900A7F13003092B2DD92A2F39D1AE
:1057680054B90D9B1BF0400F53F8042B0D9329D00F
:10577800164601E04BF0010B079B13F8017B0793DA
:10578800002FD5D15BE04BF0020B4BF0040BF3E795
:105798004BF0080BF0E74BF0100BEDE7BBF17F0F78
:1057A8003FD8A7F13003092BD8D81BF0400F03D0FE
:1057B8000A2202FB0636DFE70A2202FB0A3A4BF00E
:1057C800200BD9E7B2F1000AF9DACAF1000A4BF066
:1057D800280BD1E72E2F05D11BF0400F9BD14BF0A2
:1057E800400BC9E7242F1CD1002C00F04281099BF3
:1057F8000D931BF0400F0AD1524608980DA9FFF7E8
:10580800C9FE0D9B1A1DD3F800A00D92B4E73246CD
:1058180008980DA9FFF7BEFE0D9B1A1D1E680D9274
:10582800AAE76C2F00F0128100F20981682F00F0BE
:1058380015816A2F00F01A814C2F00F0178134B1BE
:10584800099B08980D9322460DA9FFF7A3FE002E89
:1058580047F02009B8BF2BF0400BA9F16503BCBF86
:105868001FFA8BFB0026022B40F20881B9F1610F69
:1058780040F06782FF4307F0200306930D9B073330
:1058880023F007031BF0400FD3E9000103F10802DE
:1058980008BF4FF0FF36069B0D9200930EAA3346C1
:1058A80002F059FB0130C3B2B3424BF4C054049325
:1058B80001DB049B5E1E01230E9F0593A3464FF058
:1058C800700907F10903122B0DD907F16303C62BE1
:1058D80040F20F8107F2E73340F2CE72934294BF51
:1058E8000323042305939DF83C2002F00C0312F0D7
:1058F800010240F019811BF0020F40F012811BF0E9
:10590800040400F0F880002B40F0118120231BF4E0
:10591800405F1FD1049A5032002E6A4408BF012606
:10592800133A049921B112F8011D302900F036818B
:105938001BF0100F049A18BF3246391DC0F233818C
:10594800B74280F23081BA424BF4005B40F32D81BC
:105958007E1C961B1BF400520A9200F0288127EA4D
:10596800E774013403B10134002E00F02881721C61
:105978001444A245CCBFAAEB040400241BF0090F71
:1059880004D12C44A54240F01F81002443B118469D
:105998004146039B9847002805F10105FFF6B3AE81
:1059A8001BF4006F13D0039B414630209847002812
:1059B800FFF6A9AE069BC3F178004146039B00F0B1
:1059C800F8009847002805F10205FFF69CAE1BF089
:1059D800080F05D12C44AC4240F002812546002432
:1059E8000A9B002B00F01C8127EAE77AA7EB0A073D
:1059F8007642049BBB4284BF0EABFB180AF1FF3A08
:105A080088BF5879039B98BF3020564505F1010996
:105A1800414600F3EF809847002807F10107FFF699
:105A280072AEBAF1FF3F08D1039B41462E2098473A
:105A38000028FFF668AE05F102094D46D9E7742F34
:105A48003FF49AAE7A2F3FF497AEF8E61BF0800F3A
:105A580018BF4BF4007B4BF0800B8DE61BF4807F66
:105A680018BF4BF4007B4BF4807B85E64BF4207B1E
:105A780082E62646B3465446B2467DE6FF4307F023
:105A8800200306930D9B073323F007031BF0400FF9
:105A980003F1080208BF0626B9F1650FD3E9000132
:105AA8000D9213D1731C0022DBB24BF4805B1446B9
:105AB800112BCDE9002428BF11230EAA00F0FCFA0F
:105AC800C3B2049302230E9F0593FAE6B9F1660F59
